{
  "_format": "hh-sol-artifact-1",
  "contractName": "LuckyDrawToken",
  "sourceName": "contracts/LuckyDrawToken.sol",
  "abi": [
    {
      "inputs": [],
      "stateMutability": "nonpayable",
      "type": "constructor"
    },
    {
      "inputs": [
        {
          "internalType": "address",
          "name": "spender",
          "type": "address"
        },
        {
          "internalType": "uint256",
          "name": "allowance",
          "type": "uint256"
        },
        {
          "internalType": "uint256",
          "name": "needed",
          "type": "uint256"
        }
      ],
      "name": "ERC20InsufficientAllowance",
      "type": "error"
    },
    {
      "inputs": [
        {
          "internalType": "address",
          "name": "sender",
          "type": "address"
        },
        {
          "internalType": "uint256",
          "name": "balance",
          "type": "uint256"
        },
        {
          "internalType": "uint256",
          "name": "needed",
          "type": "uint256"
        }
      ],
      "name": "ERC20InsufficientBalance",
      "type": "error"
    },
    {
      "inputs": [
        {
          "internalType": "address",
          "name": "approver",
          "type": "address"
        }
      ],
      "name": "ERC20InvalidApprover",
      "type": "error"
    },
    {
      "inputs": [
        {
          "internalType": "address",
          "name": "receiver",
          "type": "address"
        }
      ],
      "name": "ERC20InvalidReceiver",
      "type": "error"
    },
    {
      "inputs": [
        {
          "internalType": "address",
          "name": "sender",
          "type": "address"
        }
      ],
      "name": "ERC20InvalidSender",
      "type": "error"
    },
    {
      "inputs": [
        {
          "internalType": "address",
          "name": "spender",
          "type": "address"
        }
      ],
      "name": "ERC20InvalidSpender",
      "type": "error"
    },
    {
      "anonymous": false,
      "inputs": [
        {
          "indexed": true,
          "internalType": "address",
          "name": "owner",
          "type": "address"
        },
        {
          "indexed": true,
          "internalType": "address",
          "name": "spender",
          "type": "address"
        },
        {
          "indexed": false,
          "internalType": "uint256",
          "name": "value",
          "type": "uint256"
        }
      ],
      "name": "Approval",
      "type": "event"
    },
    {
      "anonymous": false,
      "inputs": [
        {
          "indexed": true,
          "internalType": "address",
          "name": "seller",
          "type": "address"
        },
        {
          "indexed": false,
          "internalType": "string",
          "name": "name",
          "type": "string"
        },
        {
          "indexed": false,
          "internalType": "uint256",
          "name": "category",
          "type": "uint256"
        },
        {
          "indexed": false,
          "internalType": "uint256",
          "name": "realPrice",
          "type": "uint256"
        },
        {
          "indexed": false,
          "internalType": "uint256",
          "name": "reward",
          "type": "uint256"
        }
      ],
      "name": "CouponAdded",
      "type": "event"
    },
    {
      "anonymous": false,
      "inputs": [
        {
          "indexed": true,
          "internalType": "address",
          "name": "winner",
          "type": "address"
        },
        {
          "indexed": false,
          "internalType": "string",
          "name": "couponCode",
          "type": "string"
        },
        {
          "indexed": false,
          "internalType": "string",
          "name": "name",
          "type": "string"
        },
        {
          "indexed": false,
          "internalType": "uint256",
          "name": "category",
          "type": "uint256"
        }
      ],
      "name": "CouponWon",
      "type": "event"
    },
    {
      "anonymous": false,
      "inputs": [
        {
          "indexed": true,
          "internalType": "address",
          "name": "user",
          "type": "address"
        },
        {
          "indexed": false,
          "internalType": "uint256",
          "name": "amount",
          "type": "uint256"
        }
      ],
      "name": "DefaultTokenClaimed",
      "type": "event"
    },
    {
      "anonymous": false,
      "inputs": [
        {
          "indexed": true,
          "internalType": "address",
          "name": "from",
          "type": "address"
        },
        {
          "indexed": true,
          "internalType": "address",
          "name": "to",
          "type": "address"
        },
        {
          "indexed": false,
          "internalType": "uint256",
          "name": "value",
          "type": "uint256"
        }
      ],
      "name": "Transfer",
      "type": "event"
    },
    {
      "inputs": [
        {
          "internalType": "string",
          "name": "name",
          "type": "string"
        },
        {
          "internalType": "string",
          "name": "couponCode",
          "type": "string"
        },
        {
          "internalType": "string",
          "name": "description",
          "type": "string"
        },
        {
          "internalType": "uint256",
          "name": "realPrice",
          "type": "uint256"
        }
      ],
      "name": "addCoupon",
      "outputs": [],
      "stateMutability": "nonpayable",
      "type": "function"
    },
    {
      "inputs": [
        {
          "internalType": "address",
          "name": "owner",
          "type": "address"
        },
        {
          "internalType": "address",
          "name": "spender",
          "type": "address"
        }
      ],
      "name": "allowance",
      "outputs": [
        {
          "internalType": "uint256",
          "name": "",
          "type": "uint256"
        }
      ],
      "stateMutability": "view",
      "type": "function"
    },
    {
      "inputs": [
        {
          "internalType": "address",
          "name": "spender",
          "type": "address"
        },
        {
          "internalType": "uint256",
          "name": "value",
          "type": "uint256"
        }
      ],
      "name": "approve",
      "outputs": [
        {
          "internalType": "bool",
          "name": "",
          "type": "bool"
        }
      ],
      "stateMutability": "nonpayable",
      "type": "function"
    },
    {
      "inputs": [
        {
          "internalType": "address",
          "name": "account",
          "type": "address"
        }
      ],
      "name": "balanceOf",
      "outputs": [
        {
          "internalType": "uint256",
          "name": "",
          "type": "uint256"
        }
      ],
      "stateMutability": "view",
      "type": "function"
    },
    {
      "inputs": [
        {
          "internalType": "uint256",
          "name": "",
          "type": "uint256"
        },
        {
          "internalType": "uint256",
          "name": "",
          "type": "uint256"
        }
      ],
      "name": "categoryItems",
      "outputs": [
        {
          "internalType": "string",
          "name": "name",
          "type": "string"
        },
        {
          "internalType": "string",
          "name": "couponCode",
          "type": "string"
        },
        {
          "internalType": "string",
          "name": "description",
          "type": "string"
        },
        {
          "internalType": "uint256",
          "name": "realPrice",
          "type": "uint256"
        },
        {
          "internalType": "uint256",
          "name": "category",
          "type": "uint256"
        },
        {
          "internalType": "address",
          "name": "seller",
          "type": "address"
        }
      ],
      "stateMutability": "view",
      "type": "function"
    },
    {
      "inputs": [],
      "name": "claimDefaultToken",
      "outputs": [],
      "stateMutability": "nonpayable",
      "type": "function"
    },
    {
      "inputs": [],
      "name": "decimals",
      "outputs": [
        {
          "internalType": "uint8",
          "name": "",
          "type": "uint8"
        }
      ],
      "stateMutability": "view",
      "type": "function"
    },
    {
      "inputs": [
        {
          "internalType": "uint256",
          "name": "category",
          "type": "uint256"
        }
      ],
      "name": "drawCoupon",
      "outputs": [],
      "stateMutability": "nonpayable",
      "type": "function"
    },
    {
      "inputs": [],
      "name": "getAllCategoryCount",
      "outputs": [
        {
          "internalType": "uint256",
          "name": "",
          "type": "uint256"
        },
        {
          "internalType": "uint256",
          "name": "",
          "type": "uint256"
        },
        {
          "internalType": "uint256",
          "name": "",
          "type": "uint256"
        },
        {
          "internalType": "uint256",
          "name": "",
          "type": "uint256"
        },
        {
          "internalType": "uint256",
          "name": "",
          "type": "uint256"
        },
        {
          "internalType": "uint256",
          "name": "",
          "type": "uint256"
        }
      ],
      "stateMutability": "view",
      "type": "function"
    },
    {
      "inputs": [
        {
          "internalType": "uint256",
          "name": "category",
          "type": "uint256"
        }
      ],
      "name": "getCategoryCount",
      "outputs": [
        {
          "internalType": "uint256",
          "name": "",
          "type": "uint256"
        }
      ],
      "stateMutability": "view",
      "type": "function"
    },
    {
      "inputs": [
        {
          "internalType": "uint256",
          "name": "category",
          "type": "uint256"
        }
      ],
      "name": "getCategoryItems",
      "outputs": [
        {
          "components": [
            {
              "internalType": "string",
              "name": "name",
              "type": "string"
            },
            {
              "internalType": "string",
              "name": "couponCode",
              "type": "string"
            },
            {
              "internalType": "string",
              "name": "description",
              "type": "string"
            },
            {
              "internalType": "uint256",
              "name": "realPrice",
              "type": "uint256"
            },
            {
              "internalType": "uint256",
              "name": "category",
              "type": "uint256"
            },
            {
              "internalType": "address",
              "name": "seller",
              "type": "address"
            }
          ],
          "internalType": "struct LuckyDrawToken.Coupon[]",
          "name": "",
          "type": "tuple[]"
        }
      ],
      "stateMutability": "view",
      "type": "function"
    },
    {
      "inputs": [],
      "name": "getMyCoupons",
      "outputs": [
        {
          "components": [
            {
              "internalType": "string",
              "name": "name",
              "type": "string"
            },
            {
              "internalType": "string",
              "name": "couponCode",
              "type": "string"
            },
            {
              "internalType": "string",
              "name": "description",
              "type": "string"
            },
            {
              "internalType": "uint256",
              "name": "realPrice",
              "type": "uint256"
            },
            {
              "internalType": "uint256",
              "name": "category",
              "type": "uint256"
            },
            {
              "internalType": "address",
              "name": "seller",
              "type": "address"
            }
          ],
          "internalType": "struct LuckyDrawToken.Coupon[]",
          "name": "",
          "type": "tuple[]"
        }
      ],
      "stateMutability": "view",
      "type": "function"
    },
    {
      "inputs": [],
      "name": "name",
      "outputs": [
        {
          "internalType": "string",
          "name": "",
          "type": "string"
        }
      ],
      "stateMutability": "view",
      "type": "function"
    },
    {
      "inputs": [],
      "name": "symbol",
      "outputs": [
        {
          "internalType": "string",
          "name": "",
          "type": "string"
        }
      ],
      "stateMutability": "view",
      "type": "function"
    },
    {
      "inputs": [],
      "name": "totalSupply",
      "outputs": [
        {
          "internalType": "uint256",
          "name": "",
          "type": "uint256"
        }
      ],
      "stateMutability": "view",
      "type": "function"
    },
    {
      "inputs": [
        {
          "internalType": "address",
          "name": "to",
          "type": "address"
        },
        {
          "internalType": "uint256",
          "name": "value",
          "type": "uint256"
        }
      ],
      "name": "transfer",
      "outputs": [
        {
          "internalType": "bool",
          "name": "",
          "type": "bool"
        }
      ],
      "stateMutability": "nonpayable",
      "type": "function"
    },
    {
      "inputs": [
        {
          "internalType": "address",
          "name": "from",
          "type": "address"
        },
        {
          "internalType": "address",
          "name": "to",
          "type": "address"
        },
        {
          "internalType": "uint256",
          "name": "value",
          "type": "uint256"
        }
      ],
      "name": "transferFrom",
      "outputs": [
        {
          "internalType": "bool",
          "name": "",
          "type": "bool"
        }
      ],
      "stateMutability": "nonpayable",
      "type": "function"
    },
    {
      "inputs": [
        {
          "internalType": "address",
          "name": "",
          "type": "address"
        },
        {
          "internalType": "uint256",
          "name": "",
          "type": "uint256"
        }
      ],
      "name": "userCoupons",
      "outputs": [
        {
          "internalType": "string",
          "name": "name",
          "type": "string"
        },
        {
          "internalType": "string",
          "name": "couponCode",
          "type": "string"
        },
        {
          "internalType": "string",
          "name": "description",
          "type": "string"
        },
        {
          "internalType": "uint256",
          "name": "realPrice",
          "type": "uint256"
        },
        {
          "internalType": "uint256",
          "name": "category",
          "type": "uint256"
        },
        {
          "internalType": "address",
          "name": "seller",
          "type": "address"
        }
      ],
      "stateMutability": "view",
      "type": "function"
    }
  ],
  "bytecode": "0x608060405234801561001057600080fd5b506040518060400160405280600f81526020017f4c75636b794472617720546f6b656e00000000000000000000000000000000008152506040518060400160405280600381526020017f4c44540000000000000000000000000000000000000000000000000000000000815250816003908161008c91906105df565b50806004908161009c91906105df565b5050506100d4336100b16100d960201b60201c565b600a6100bd9190610820565b600a6100c9919061086b565b6100e260201b60201c565b61099e565b60006012905090565b600073ffffffffffffffffffffffffffffffffffffffff168273ffffffffffffffffffffffffffffffffffffffff16036101545760006040517fec442f0500000000000000000000000000000000000000000000000000000000815260040161014b91906108ee565b60405180910390fd5b6101666000838361016a60201b60201c565b5050565b600073ffffffffffffffffffffffffffffffffffffffff168373ffffffffffffffffffffffffffffffffffffffff16036101bc5780600260008282546101b09190610909565b9250508190555061028f565b60008060008573ffffffffffffffffffffffffffffffffffffffff1673ffffffffffffffffffffffffffffffffffffffff16815260200190815260200160002054905081811015610248578381836040517fe450d38c00000000000000000000000000000000000000000000000000000000815260040161023f9392919061094c565b60405180910390fd5b8181036000808673ffffffffffffffffffffffffffffffffffffffff1673ffffffffffffffffffffffffffffffffffffffff16815260200190815260200160002081905550505b600073ffffffffffffffffffffffffffffffffffffffff168273ffffffffffffffffffffffffffffffffffffffff16036102d85780600260008282540392505081905550610325565b806000808473ffffffffffffffffffffffffffffffffffffffff1673ffffffffffffffffffffffffffffffffffffffff168152602001908152602001600020600082825401925050819055505b8173ffffffffffffffffffffffffffffffffffffffff168373ffffffffffffffffffffffffffffffffffffffff167fddf252ad1be2c89b69c2b068fc378daa952ba7f163c4a11628f55a4df523b3ef836040516103829190610983565b60405180910390a3505050565b600081519050919050565b7f4e487b7100000000000000000000000000000000000000000000000000000000600052604160045260246000fd5b7f4e487b7100000000000000000000000000000000000000000000000000000000600052602260045260246000fd5b6000600282049050600182168061041057607f821691505b602082108103610423576104226103c9565b5b50919050565b60008190508160005260206000209050919050565b60006020601f8301049050919050565b600082821b905092915050565b60006008830261048b7fffffffffffffffffffffffffffffffffffffffffffffffffffffffffffffffff8261044e565b610495868361044e565b95508019841693508086168417925050509392505050565b6000819050919050565b6000819050919050565b60006104dc6104d76104d2846104ad565b6104b7565b6104ad565b9050919050565b6000819050919050565b6104f6836104c1565b61050a610502826104e3565b84845461045b565b825550505050565b600090565b61051f610512565b61052a8184846104ed565b505050565b5b8181101561054e57610543600082610517565b600181019050610530565b5050565b601f8211156105935761056481610429565b61056d8461043e565b8101602085101561057c578190505b6105906105888561043e565b83018261052f565b50505b505050565b600082821c905092915050565b60006105b660001984600802610598565b1980831691505092915050565b60006105cf83836105a5565b9150826002028217905092915050565b6105e88261038f565b67ffffffffffffffff8111156106015761060061039a565b5b61060b82546103f8565b610616828285610552565b600060209050601f8311600181146106495760008415610637578287015190505b61064185826105c3565b8655506106a9565b601f19841661065786610429565b60005b8281101561067f5784890151825560018201915060208501945060208101905061065a565b8683101561069c5784890151610698601f8916826105a5565b8355505b6001600288020188555050505b505050505050565b7f4e487b7100000000000000000000000000000000000000000000000000000000600052601160045260246000fd5b60008160011c9050919050565b6000808291508390505b600185111561073757808604811115610713576107126106b1565b5b60018516156107225780820291505b8081029050610730856106e0565b94506106f7565b94509492505050565b600082610750576001905061080c565b8161075e576000905061080c565b8160018114610774576002811461077e576107ad565b600191505061080c565b60ff8411156107905761078f6106b1565b5b8360020a9150848211156107a7576107a66106b1565b5b5061080c565b5060208310610133831016604e8410600b84101617156107e25782820a9050838111156107dd576107dc6106b1565b5b61080c565b6107ef84848460016106ed565b92509050818404811115610806576108056106b1565b5b81810290505b9392505050565b600060ff82169050919050565b600061082b826104ad565b915061083683610813565b92506108637fffffffffffffffffffffffffffffffffffffffffffffffffffffffffffffffff8484610740565b905092915050565b6000610876826104ad565b9150610881836104ad565b925082820261088f816104ad565b915082820484148315176108a6576108a56106b1565b5b5092915050565b600073ffffffffffffffffffffffffffffffffffffffff82169050919050565b60006108d8826108ad565b9050919050565b6108e8816108cd565b82525050565b600060208201905061090360008301846108df565b92915050565b6000610914826104ad565b915061091f836104ad565b9250828201905080821115610937576109366106b1565b5b92915050565b610946816104ad565b82525050565b600060608201905061096160008301866108df565b61096e602083018561093d565b61097b604083018461093d565b949350505050565b6000602082019050610998600083018461093d565b92915050565b61302e806109ad6000396000f3fe608060405234801561001057600080fd5b50600436106101165760003560e01c80637ed80ccf116100a2578063c383d1a711610071578063c383d1a714610301578063c44269af14610331578063c57911a814610361578063dd62ed3e1461036b578063e9eda19c1461039b57610116565b80637ed80ccf1461027957806395d89b4114610297578063a9059cbb146102b5578063bca43a90146102e557610116565b8063313ce567116100e9578063313ce567146101b75780633eb63685146101d55780634dd17f661461020a57806370a082311461022d578063789143d51461025d57610116565b806306fdde031461011b578063095ea7b31461013957806318160ddd1461016957806323b872dd14610187575b600080fd5b6101236103d0565b60405161013091906120f8565b60405180910390f35b610153600480360381019061014e91906121c2565b610462565b604051610160919061221d565b60405180910390f35b610171610485565b60405161017e9190612247565b60405180910390f35b6101a1600480360381019061019c9190612262565b61048f565b6040516101ae919061221d565b60405180910390f35b6101bf6104be565b6040516101cc91906122d1565b60405180910390f35b6101ef60048036038101906101ea91906122ec565b6104c7565b6040516102019695949392919061233b565b60405180910390f35b6102126106d8565b604051610224969594939291906123b1565b60405180910390f35b61024760048036038101906102429190612412565b610785565b6040516102549190612247565b60405180910390f35b61027760048036038101906102729190612574565b6107cd565b005b61028161097c565b60405161028e91906127f0565b60405180910390f35b61029f610c38565b6040516102ac91906120f8565b60405180910390f35b6102cf60048036038101906102ca91906121c2565b610cca565b6040516102dc919061221d565b60405180910390f35b6102ff60048036038101906102fa9190612812565b610ced565b005b61031b60048036038101906103169190612812565b61115b565b6040516103289190612247565b60405180910390f35b61034b60048036038101906103469190612812565b61117b565b60405161035891906127f0565b60405180910390f35b61036961140d565b005b6103856004803603810190610380919061283f565b611477565b6040516103929190612247565b60405180910390f35b6103b560048036038101906103b091906121c2565b6114fe565b6040516103c79695949392919061233b565b60405180910390f35b6060600380546103df906128ae565b80601f016020809104026020016040519081016040528092919081815260200182805461040b906128ae565b80156104585780601f1061042d57610100808354040283529160200191610458565b820191906000526020600020905b81548152906001019060200180831161043b57829003601f168201915b5050505050905090565b60008061046d61170f565b905061047a818585611717565b600191505092915050565b6000600254905090565b60008061049a61170f565b90506104a7858285611729565b6104b28585856117be565b60019150509392505050565b60006012905090565b600560205281600052604060002081815481106104e357600080fd5b906000526020600020906006020160009150915050806000018054610507906128ae565b80601f0160208091040260200160405190810160405280929190818152602001828054610533906128ae565b80156105805780601f1061055557610100808354040283529160200191610580565b820191906000526020600020905b81548152906001019060200180831161056357829003601f168201915b505050505090806001018054610595906128ae565b80601f01602080910402602001604051908101604052809291908181526020018280546105c1906128ae565b801561060e5780601f106105e35761010080835404028352916020019161060e565b820191906000526020600020905b8154815290600101906020018083116105f157829003601f168201915b505050505090806002018054610623906128ae565b80601f016020809104026020016040519081016040528092919081815260200182805461064f906128ae565b801561069c5780601f106106715761010080835404028352916020019161069c565b820191906000526020600020905b81548152906001019060200180831161067f57829003601f168201915b5050505050908060030154908060040154908060050160009054906101000a900473ffffffffffffffffffffffffffffffffffffffff16905086565b600080600080600080600560006001815260200190815260200160002080549050600560006002815260200190815260200160002080549050600560006003815260200190815260200160002080549050600560006004815260200190815260200160002080549050600560006005815260200190815260200160002080549050600560006006815260200190815260200160002080549050955095509550955095509550909192939495565b60008060008373ffffffffffffffffffffffffffffffffffffffff1673ffffffffffffffffffffffffffffffffffffffff168152602001908152602001600020549050919050565b60006107d8826118b2565b905060006040518060c001604052808781526020018681526020018581526020018481526020018381526020013373ffffffffffffffffffffffffffffffffffffffff1681525090506005600083815260200190815260200160002081908060018154018082558091505060019003906000526020600020906006020160009091909190915060008201518160000190816108739190612a8b565b5060208201518160010190816108899190612a8b565b50604082015181600201908161089f9190612a8b565b50606082015181600301556080820151816004015560a08201518160050160006101000a81548173ffffffffffffffffffffffffffffffffffffffff021916908373ffffffffffffffffffffffffffffffffffffffff16021790555050506000670de0b6b3a7640000836109139190612b8c565b905061091f3382611918565b3373ffffffffffffffffffffffffffffffffffffffff167f42ad336b464737a9f5975de22a78ec07a87f92108d61c73f9a01d00bd899c3898885878560405161096b9493929190612bce565b60405180910390a250505050505050565b6060600660003373ffffffffffffffffffffffffffffffffffffffff1673ffffffffffffffffffffffffffffffffffffffff168152602001908152602001600020805480602002602001604051908101604052809291908181526020016000905b82821015610c2f57838290600052602060002090600602016040518060c0016040529081600082018054610a10906128ae565b80601f0160208091040260200160405190810160405280929190818152602001828054610a3c906128ae565b8015610a895780601f10610a5e57610100808354040283529160200191610a89565b820191906000526020600020905b815481529060010190602001808311610a6c57829003601f168201915b50505050508152602001600182018054610aa2906128ae565b80601f0160208091040260200160405190810160405280929190818152602001828054610ace906128ae565b8015610b1b5780601f10610af057610100808354040283529160200191610b1b565b820191906000526020600020905b815481529060010190602001808311610afe57829003601f168201915b50505050508152602001600282018054610b34906128ae565b80601f0160208091040260200160405190810160405280929190818152602001828054610b60906128ae565b8015610bad5780601f10610b8257610100808354040283529160200191610bad565b820191906000526020600020905b815481529060010190602001808311610b9057829003601f168201915b5050505050815260200160038201548152602001600482015481526020016005820160009054906101000a900473ffffffffffffffffffffffffffffffffffffffff1673ffffffffffffffffffffffffffffffffffffffff1673ffffffffffffffffffffffffffffffffffffffff1681525050815260200190600101906109dd565b50505050905090565b606060048054610c47906128ae565b80601f0160208091040260200160405190810160405280929190818152602001828054610c73906128ae565b8015610cc05780601f10610c9557610100808354040283529160200191610cc0565b820191906000526020600020905b815481529060010190602001808311610ca357829003601f168201915b5050505050905090565b600080610cd561170f565b9050610ce28185856117be565b600191505092915050565b6000670de0b6b3a764000082610d039190612b8c565b905080610d0f33610785565b1015610d50576040517f08c379a0000000000000000000000000000000000000000000000000000000008152600401610d4790612c66565b60405180910390fd5b610d5a338261199a565b60006005600084815260200190815260200160002080549050610d7b611a1c565b610d859190612cb5565b90506000600560008581526020019081526020016000208281548110610dae57610dad612ce6565b5b90600052602060002090600602016040518060c0016040529081600082018054610dd7906128ae565b80601f0160208091040260200160405190810160405280929190818152602001828054610e03906128ae565b8015610e505780601f10610e2557610100808354040283529160200191610e50565b820191906000526020600020905b815481529060010190602001808311610e3357829003601f168201915b50505050508152602001600182018054610e69906128ae565b80601f0160208091040260200160405190810160405280929190818152602001828054610e95906128ae565b8015610ee25780601f10610eb757610100808354040283529160200191610ee2565b820191906000526020600020905b815481529060010190602001808311610ec557829003601f168201915b50505050508152602001600282018054610efb906128ae565b80601f0160208091040260200160405190810160405280929190818152602001828054610f27906128ae565b8015610f745780601f10610f4957610100808354040283529160200191610f74565b820191906000526020600020905b815481529060010190602001808311610f5757829003601f168201915b5050505050815260200160038201548152602001600482015481526020016005820160009054906101000a900473ffffffffffffffffffffffffffffffffffffffff1673ffffffffffffffffffffffffffffffffffffffff1673ffffffffffffffffffffffffffffffffffffffff16815250509050600660003373ffffffffffffffffffffffffffffffffffffffff1673ffffffffffffffffffffffffffffffffffffffff16815260200190815260200160002081908060018154018082558091505060019003906000526020600020906006020160009091909190915060008201518160000190816110679190612a8b565b50602082015181600101908161107d9190612a8b565b5060408201518160020190816110939190612a8b565b50606082015181600301556080820151816004015560a08201518160050160006101000a81548173ffffffffffffffffffffffffffffffffffffffff021916908373ffffffffffffffffffffffffffffffffffffffff16021790555050506110fb8483611a53565b3373ffffffffffffffffffffffffffffffffffffffff167f13499c05ff7522b4f187796e82041c3ee37531f619b2c93892573e827bff7a66826020015183600001518760405161114d93929190612d15565b60405180910390a250505050565b600060056000838152602001908152602001600020805490509050919050565b606060056000838152602001908152602001600020805480602002602001604051908101604052809291908181526020016000905b8282101561140257838290600052602060002090600602016040518060c00160405290816000820180546111e3906128ae565b80601f016020809104026020016040519081016040528092919081815260200182805461120f906128ae565b801561125c5780601f106112315761010080835404028352916020019161125c565b820191906000526020600020905b81548152906001019060200180831161123f57829003601f168201915b50505050508152602001600182018054611275906128ae565b80601f01602080910402602001604051908101604052809291908181526020018280546112a1906128ae565b80156112ee5780601f106112c3576101008083540402835291602001916112ee565b820191906000526020600020905b8154815290600101906020018083116112d157829003601f168201915b50505050508152602001600282018054611307906128ae565b80601f0160208091040260200160405190810160405280929190818152602001828054611333906128ae565b80156113805780601f1061135557610100808354040283529160200191611380565b820191906000526020600020905b81548152906001019060200180831161136357829003601f168201915b5050505050815260200160038201548152602001600482015481526020016005820160009054906101000a900473ffffffffffffffffffffffffffffffffffffffff1673ffffffffffffffffffffffffffffffffffffffff1673ffffffffffffffffffffffffffffffffffffffff1681525050815260200190600101906111b0565b505050509050919050565b61141f336729a2241af62c0000611918565b3373ffffffffffffffffffffffffffffffffffffffff167ff4a7a0c00cecc0caa52c8ff4c7529b78bb667386930696b48d02b1a634b6f7b56729a2241af62c000060405161146d9190612247565b60405180910390a2565b6000600160008473ffffffffffffffffffffffffffffffffffffffff1673ffffffffffffffffffffffffffffffffffffffff16815260200190815260200160002060008373ffffffffffffffffffffffffffffffffffffffff1673ffffffffffffffffffffffffffffffffffffffff16815260200190815260200160002054905092915050565b6006602052816000526040600020818154811061151a57600080fd5b90600052602060002090600602016000915091505080600001805461153e906128ae565b80601f016020809104026020016040519081016040528092919081815260200182805461156a906128ae565b80156115b75780601f1061158c576101008083540402835291602001916115b7565b820191906000526020600020905b81548152906001019060200180831161159a57829003601f168201915b5050505050908060010180546115cc906128ae565b80601f01602080910402602001604051908101604052809291908181526020018280546115f8906128ae565b80156116455780601f1061161a57610100808354040283529160200191611645565b820191906000526020600020905b81548152906001019060200180831161162857829003601f168201915b50505050509080600201805461165a906128ae565b80601f0160208091040260200160405190810160405280929190818152602001828054611686906128ae565b80156116d35780601f106116a8576101008083540402835291602001916116d3565b820191906000526020600020905b8154815290600101906020018083116116b657829003601f168201915b5050505050908060030154908060040154908060050160009054906101000a900473ffffffffffffffffffffffffffffffffffffffff16905086565b600033905090565b6117248383836001611c0f565b505050565b60006117358484611477565b90507fffffffffffffffffffffffffffffffffffffffffffffffffffffffffffffffff8110156117b857818110156117a8578281836040517ffb8f41b200000000000000000000000000000000000000000000000000000000815260040161179f93929190612d5a565b60405180910390fd5b6117b784848484036000611c0f565b5b50505050565b600073ffffffffffffffffffffffffffffffffffffffff168373ffffffffffffffffffffffffffffffffffffffff16036118305760006040517f96c6fd1e0000000000000000000000000000000000000000000000000000000081526004016118279190612d91565b60405180910390fd5b600073ffffffffffffffffffffffffffffffffffffffff168273ffffffffffffffffffffffffffffffffffffffff16036118a25760006040517fec442f050000000000000000000000000000000000000000000000000000000081526004016118999190612d91565b60405180910390fd5b6118ad838383611de6565b505050565b600061138882116118c65760019050611913565b61271082116118d85760029050611913565b613a9882116118ea5760039050611913565b614e2082116118fc5760049050611913565b6161a8821161190e5760059050611913565b600690505b919050565b600073ffffffffffffffffffffffffffffffffffffffff168273ffffffffffffffffffffffffffffffffffffffff160361198a5760006040517fec442f050000000000000000000000000000000000000000000000000000000081526004016119819190612d91565b60405180910390fd5b61199660008383611de6565b5050565b600073ffffffffffffffffffffffffffffffffffffffff168273ffffffffffffffffffffffffffffffffffffffff1603611a0c5760006040517f96c6fd1e000000000000000000000000000000000000000000000000000000008152600401611a039190612d91565b60405180910390fd5b611a1882600083611de6565b5050565b600042443343604051602001611a359493929190612e15565b6040516020818303038152906040528051906020012060001c905090565b60006005600084815260200190815260200160002090508060018280549050611a7c9190612e63565b81548110611a8d57611a8c612ce6565b5b9060005260206000209060060201818381548110611aae57611aad612ce6565b5b906000526020600020906006020160008201816000019081611ad09190612ead565b5060018201816001019081611ae59190612ead565b5060028201816002019081611afa9190612ead565b5060038201548160030155600482015481600401556005820160009054906101000a900473ffffffffffffffffffffffffffffffffffffffff168160050160006101000a81548173ffffffffffffffffffffffffffffffffffffffff021916908373ffffffffffffffffffffffffffffffffffffffff16021790555090505080805480611b8a57611b89612f95565b5b600190038181906000526020600020906006020160008082016000611baf919061200b565b600182016000611bbf919061200b565b600282016000611bcf919061200b565b600382016000905560048201600090556005820160006101000a81549073ffffffffffffffffffffffffffffffffffffffff021916905550509055505050565b600073ffffffffffffffffffffffffffffffffffffffff168473ffffffffffffffffffffffffffffffffffffffff1603611c815760006040517fe602df05000000000000000000000000000000000000000000000000000000008152600401611c789190612d91565b60405180910390fd5b600073ffffffffffffffffffffffffffffffffffffffff168373ffffffffffffffffffffffffffffffffffffffff1603611cf35760006040517f94280d62000000000000000000000000000000000000000000000000000000008152600401611cea9190612d91565b60405180910390fd5b81600160008673ffffffffffffffffffffffffffffffffffffffff1673ffffffffffffffffffffffffffffffffffffffff16815260200190815260200160002060008573ffffffffffffffffffffffffffffffffffffffff1673ffffffffffffffffffffffffffffffffffffffff168152602001908152602001600020819055508015611de0578273ffffffffffffffffffffffffffffffffffffffff168473ffffffffffffffffffffffffffffffffffffffff167f8c5be1e5ebec7d5bd14f71427d1e84f3dd0314c0f7b2291e5b200ac8c7c3b92584604051611dd79190612247565b60405180910390a35b50505050565b600073ffffffffffffffffffffffffffffffffffffffff168373ffffffffffffffffffffffffffffffffffffffff1603611e38578060026000828254611e2c9190612fc4565b92505081905550611f0b565b60008060008573ffffffffffffffffffffffffffffffffffffffff1673ffffffffffffffffffffffffffffffffffffffff16815260200190815260200160002054905081811015611ec4578381836040517fe450d38c000000000000000000000000000000000000000000000000000000008152600401611ebb93929190612d5a565b60405180910390fd5b8181036000808673ffffffffffffffffffffffffffffffffffffffff1673ffffffffffffffffffffffffffffffffffffffff16815260200190815260200160002081905550505b600073ffffffffffffffffffffffffffffffffffffffff168273ffffffffffffffffffffffffffffffffffffffff1603611f545780600260008282540392505081905550611fa1565b806000808473ffffffffffffffffffffffffffffffffffffffff1673ffffffffffffffffffffffffffffffffffffffff168152602001908152602001600020600082825401925050819055505b8173ffffffffffffffffffffffffffffffffffffffff168373ffffffffffffffffffffffffffffffffffffffff167fddf252ad1be2c89b69c2b068fc378daa952ba7f163c4a11628f55a4df523b3ef83604051611ffe9190612247565b60405180910390a3505050565b508054612017906128ae565b6000825580601f106120295750612048565b601f016020900490600052602060002090810190612047919061204b565b5b50565b5b8082111561206457600081600090555060010161204c565b5090565b600081519050919050565b600082825260208201905092915050565b60005b838110156120a2578082015181840152602081019050612087565b60008484015250505050565b6000601f19601f8301169050919050565b60006120ca82612068565b6120d48185612073565b93506120e4818560208601612084565b6120ed816120ae565b840191505092915050565b6000602082019050818103600083015261211281846120bf565b905092915050565b6000604051905090565b600080fd5b600080fd5b600073ffffffffffffffffffffffffffffffffffffffff82169050919050565b60006121598261212e565b9050919050565b6121698161214e565b811461217457600080fd5b50565b60008135905061218681612160565b92915050565b6000819050919050565b61219f8161218c565b81146121aa57600080fd5b50565b6000813590506121bc81612196565b92915050565b600080604083850312156121d9576121d8612124565b5b60006121e785828601612177565b92505060206121f8858286016121ad565b9150509250929050565b60008115159050919050565b61221781612202565b82525050565b6000602082019050612232600083018461220e565b92915050565b6122418161218c565b82525050565b600060208201905061225c6000830184612238565b92915050565b60008060006060848603121561227b5761227a612124565b5b600061228986828701612177565b935050602061229a86828701612177565b92505060406122ab868287016121ad565b9150509250925092565b600060ff82169050919050565b6122cb816122b5565b82525050565b60006020820190506122e660008301846122c2565b92915050565b6000806040838503121561230357612302612124565b5b6000612311858286016121ad565b9250506020612322858286016121ad565b9150509250929050565b6123358161214e565b82525050565b600060c082019050818103600083015261235581896120bf565b9050818103602083015261236981886120bf565b9050818103604083015261237d81876120bf565b905061238c6060830186612238565b6123996080830185612238565b6123a660a083018461232c565b979650505050505050565b600060c0820190506123c66000830189612238565b6123d36020830188612238565b6123e06040830187612238565b6123ed6060830186612238565b6123fa6080830185612238565b61240760a0830184612238565b979650505050505050565b60006020828403121561242857612427612124565b5b600061243684828501612177565b91505092915050565b600080fd5b600080fd5b7f4e487b7100000000000000000000000000000000000000000000000000000000600052604160045260246000fd5b612481826120ae565b810181811067ffffffffffffffff821117156124a05761249f612449565b5b80604052505050565b60006124b361211a565b90506124bf8282612478565b919050565b600067ffffffffffffffff8211156124df576124de612449565b5b6124e8826120ae565b9050602081019050919050565b82818337600083830152505050565b6000612517612512846124c4565b6124a9565b90508281526020810184848401111561253357612532612444565b5b61253e8482856124f5565b509392505050565b600082601f83011261255b5761255a61243f565b5b813561256b848260208601612504565b91505092915050565b6000806000806080858703121561258e5761258d612124565b5b600085013567ffffffffffffffff8111156125ac576125ab612129565b5b6125b887828801612546565b945050602085013567ffffffffffffffff8111156125d9576125d8612129565b5b6125e587828801612546565b935050604085013567ffffffffffffffff81111561260657612605612129565b5b61261287828801612546565b9250506060612623878288016121ad565b91505092959194509250565b600081519050919050565b600082825260208201905092915050565b6000819050602082019050919050565b600082825260208201905092915050565b600061267782612068565b612681818561265b565b9350612691818560208601612084565b61269a816120ae565b840191505092915050565b6126ae8161218c565b82525050565b6126bd8161214e565b82525050565b600060c08301600083015184820360008601526126e0828261266c565b915050602083015184820360208601526126fa828261266c565b91505060408301518482036040860152612714828261266c565b915050606083015161272960608601826126a5565b50608083015161273c60808601826126a5565b5060a083015161274f60a08601826126b4565b508091505092915050565b600061276683836126c3565b905092915050565b6000602082019050919050565b60006127868261262f565b612790818561263a565b9350836020820285016127a28561264b565b8060005b858110156127de57848403895281516127bf858261275a565b94506127ca8361276e565b925060208a019950506001810190506127a6565b50829750879550505050505092915050565b6000602082019050818103600083015261280a818461277b565b905092915050565b60006020828403121561282857612827612124565b5b6000612836848285016121ad565b91505092915050565b6000806040838503121561285657612855612124565b5b600061286485828601612177565b925050602061287585828601612177565b9150509250929050565b7f4e487b7100000000000000000000000000000000000000000000000000000000600052602260045260246000fd5b600060028204905060018216806128c657607f821691505b6020821081036128d9576128d861287f565b5b50919050565b60008190508160005260206000209050919050565b60006020601f8301049050919050565b600082821b905092915050565b6000600883026129417fffffffffffffffffffffffffffffffffffffffffffffffffffffffffffffffff82612904565b61294b8683612904565b95508019841693508086168417925050509392505050565b6000819050919050565b600061298861298361297e8461218c565b612963565b61218c565b9050919050565b6000819050919050565b6129a28361296d565b6129b66129ae8261298f565b848454612911565b825550505050565b600090565b6129cb6129be565b6129d6818484612999565b505050565b5b818110156129fa576129ef6000826129c3565b6001810190506129dc565b5050565b601f821115612a3f57612a10816128df565b612a19846128f4565b81016020851015612a28578190505b612a3c612a34856128f4565b8301826129db565b50505b505050565b600082821c905092915050565b6000612a6260001984600802612a44565b1980831691505092915050565b6000612a7b8383612a51565b9150826002028217905092915050565b612a9482612068565b67ffffffffffffffff811115612aad57612aac612449565b5b612ab782546128ae565b612ac28282856129fe565b600060209050601f831160018114612af55760008415612ae3578287015190505b612aed8582612a6f565b865550612b55565b601f198416612b03866128df565b60005b82811015612b2b57848901518255600182019150602085019450602081019050612b06565b86831015612b485784890151612b44601f891682612a51565b8355505b6001600288020188555050505b505050505050565b7f4e487b7100000000000000000000000000000000000000000000000000000000600052601160045260246000fd5b6000612b978261218c565b9150612ba28361218c565b9250828202612bb08161218c565b91508282048414831517612bc757612bc6612b5d565b5b5092915050565b60006080820190508181036000830152612be881876120bf565b9050612bf76020830186612238565b612c046040830185612238565b612c116060830184612238565b95945050505050565b7f696e737566696369656e7420746f6b656e000000000000000000000000000000600082015250565b6000612c50601183612073565b9150612c5b82612c1a565b602082019050919050565b60006020820190508181036000830152612c7f81612c43565b9050919050565b7f4e487b7100000000000000000000000000000000000000000000000000000000600052601260045260246000fd5b6000612cc08261218c565b9150612ccb8361218c565b925082612cdb57612cda612c86565b5b828206905092915050565b7f4e487b7100000000000000000000000000000000000000000000000000000000600052603260045260246000fd5b60006060820190508181036000830152612d2f81866120bf565b90508181036020830152612d4381856120bf565b9050612d526040830184612238565b949350505050565b6000606082019050612d6f600083018661232c565b612d7c6020830185612238565b612d896040830184612238565b949350505050565b6000602082019050612da6600083018461232c565b92915050565b6000819050919050565b612dc7612dc28261218c565b612dac565b82525050565b60008160601b9050919050565b6000612de582612dcd565b9050919050565b6000612df782612dda565b9050919050565b612e0f612e0a8261214e565b612dec565b82525050565b6000612e218287612db6565b602082019150612e318286612db6565b602082019150612e418285612dfe565b601482019150612e518284612db6565b60208201915081905095945050505050565b6000612e6e8261218c565b9150612e798361218c565b9250828203905081811115612e9157612e90612b5d565b5b92915050565b600081549050612ea6816128ae565b9050919050565b818103612ebb575050612f93565b612ec482612e97565b67ffffffffffffffff811115612edd57612edc612449565b5b612ee782546128ae565b612ef28282856129fe565b6000601f831160018114612f215760008415612f0f578287015490505b612f198582612a6f565b865550612f8c565b601f198416612f2f876128df565b9650612f3a866128df565b60005b82811015612f6257848901548255600182019150600185019450602081019050612f3d565b86831015612f7f5784890154612f7b601f891682612a51565b8355505b6001600288020188555050505b5050505050505b565b7f4e487b7100000000000000000000000000000000000000000000000000000000600052603160045260246000fd5b6000612fcf8261218c565b9150612fda8361218c565b9250828201905080821115612ff257612ff1612b5d565b5b9291505056fea2646970667358221220b4951d86b916944aff9996584ffd9cf733cb9729f1dfeaeea6316c78cf54464b64736f6c634300081e0033",
  "linkReferences": {},
  "deployedLinkReferences": {}
}